:020000040800F2
:1000000038070020ED010008B9050008B105000817
:10001000B50500089F020008550E0008000000000A
:10002000000000000000000000000000BD08000803
:10003000990400080000000089060008390A000839
:10004000070200080702000807020008070200086C
:10005000070200080702000807020008070200085C
:10006000070200080702000807020008070200084C
:10007000070200080702000807020008070200083C
:10008000070200080702000807020008070200082C
:10009000070200080702000807020008070200081C
:1000A000070200080702000807020008070200080C
:1000B00007020008070200080702000807020008FC
:1000C00007020008070200080702000807020008EC
:1000D000070200080702000807020008FD0A0008DE
:1000E00007020008070200080702000800000000DD
:1000F0000000000000000000000000000000000000
:1001000000000000000000000702000807020008CD
:10011000070200080702000807020008070200089B
:10012000070200080702000807020008070200088B
:10013000070200080702000807020008070200087B
:10014000070200080702000807020008070200086B
:1001500000F002F800F03AF80AA090E8000C82449F
:100160008344AAF10107DA4501D100F02FF8AFF27C
:10017000090EBAE80F0013F0010F18BFFB1A43F085
:1001800001031847680E0000880E0000103A24BFD3
:1001900078C878C1FAD8520724BF30C830C144BFEC
:1001A00004680C607047000000230024002500262E
:1001B000103A28BF78C1FBD8520728BF30C148BFCA
:1001C0000B6070471FB51FBD10B510BD00F031F8B2
:1001D0001146FFF7F7FF00F03FFE00F04FF803B4C1
:1001E000FFF7F2FF03BC00F053F800000948804716
:1001F00009480047FEE7FEE7FEE7FEE7FEE7FEE709
:10020000FEE7FEE7FEE7FEE704480549054A064B20
:10021000704700003D0A0008510100083801002025
:10022000380700203803002038030020704770474B
:100230007047754600F028F8AE46050069465346FB
:1002400020F00700854618B020B5FFF7DDFFBDE8B8
:1002500020404FF000064FF000074FF000084FF02D
:10026000000B21F00701AC46ACE8C009ACE8C009BE
:10027000ACE8C009ACE8C0098D4670470446AFF34E
:1002800000802046FFF7ABFF00487047D4000020F5
:1002900001491820ABBEFEE726000200704700BFF0
:1002A000FEE721B1026842F00102026004E0026848
:1002B0004FF6FE731A40026070472DE9FF4F8BB076
:1002C0000C4615461E4618AF97E8800F0B9800F0B5
:1002D00019F80094019502960397CDF81080CDF897
:1002E0001490CDF818A0CDF81CB01D9808901E9859
:1002F00009901F980A9069460B9800F0ADF80FB06E
:10030000BDE8F08F01684FF6FE72114001600021D8
:10031000016041608160C1604B49884208D14A490F
:100320000839496841F00F01474A083A51608AE0AC
:1003300045491431884208D143490839496841F098
:10034000F001414A083A51607DE03F492831884236
:1003500008D13D490839496841F470613A4A083A80
:10036000516070E038493C31884208D1364908393B
:10037000496841F47041344A083A516063E03249B7
:100380005031884208D130490839496841F4702118
:100390002D4A083A516056E02B496431884208D111
:1003A00029490839496841F47001274A083A5160DF
:1003B00049E025497831884208D1234908394968FC
:1003C00041F07061204A083A51603CE01F49884280
:1003D00006D1011F096841F00F01021F116032E0D0
:1003E0001A491431884208D11849091F096841F097
:1003F000F001164A121F116025E014492831884285
:1004000008D11249091F096841F470610F4A121F8F
:10041000116018E00D493C31884208D10B49091F91
:10042000096841F47041094A121F11600BE0074945
:100430005031884207D10549091F096841F47021EC
:10044000024A121F1160704708000240080402406F
:100450000146486880B2704710B50022026847F62E
:10046000F0739A430C6A8B6823430C6923434C69ED
:1004700023438C692343CC6923434C6A23438C6A0E
:1004800023431A430260CB6843600B6883604B6868
:10049000C36010BD4160704770472DE9F0410246CE
:1004A00000250026002000230024002791F803C027
:1004B0000CF00F0591F803C00CF0100CBCF1000F0C
:1004C00003D091F802C04CEA050591F800C0BCF1D8
:1004D000000F31D0146800202BE04FF0010C0CFA13
:1004E00000F3B1F800C00CEA03069E4220D183005D
:1004F0004FF00F0C0CFA03F7BC4305FA03FC4CEA6F
:10050000040491F803C0BCF1280F06D14FF0010C90
:100510000CFA00FCC2F814C00AE091F803C0BCF168
:10052000480F05D14FF0010C0CFA00FCC2F810C0C6
:10053000401C0828D1D31460B1F800C0BCF1FF0FF3
:1005400034DD546800202EE000F1080C4FF0010863
:1005500008FA0CF3B1F800C00CEA03069E4221D160
:1005600083004FF00F0C0CFA03F7BC4305FA03FCB1
:100570004CEA040491F803C0BCF1280F05D100F146
:10058000080C08FA0CF8C2F8148091F803C0BCF10A
:10059000480F07D100F1080C4FF0010808FA0CF8D9
:1005A000C2F81080401C0828CED35460BDE8F0810A
:1005B00000BFFEE700BFFEE77047F8B506460C46F1
:1005C00015468DF800608DF801408DF8025001202D
:1005D0008DF80300684600F001F8F8BD70B5002101
:1005E00000230F22C47804B3154C246804F4E0649B
:1005F000C4F5E064210AC1F10403CA40447804FA56
:1006000003F184781440214309010E4C0678A1556A
:10061000047804F01F050124AC4005786D11AD008D
:1006200005F1E025C5F8004109E0047804F01F0554
:100630000124AC40044D0678761145F8264070BD83
:100640000CED00E000E400E080E100E0024901433D
:10065000024A1160704700000000FA050CED00E04E
:1006600010B5002807DA0A07140E054A00F00F0338
:100670001B1FD45403E00A07130E024A135410BD83
:1006800018ED00E000E400E07047000029B1064AE0
:1006900052690243044B5A6104E0034A526982439F
:1006A000014B5A61704700000010024029B1064A10
:1006B000D2690243044BDA6104E0034AD2698243FF
:1006C000014BDA61704700000010024029B1064A70
:1006D00012690243044B1A6104E0034A126982431F
:1006E000014B1A61704700000010024029B1064A10
:1006F00092690243044B9A6104E0034A926982437F
:10070000014B9A61704700000010024029B1064A6F
:10071000D2680243044BDA6004E0034AD2688243A1
:10072000014BDA6070470000001002402DE9F041F3
:1007300000210022002500230026002400278C46EB
:10074000DFF86081D8F8048008F00C0121B1042999
:1007500007D0082959D109E0DFF84C81C0F80080A2
:1007600058E0DFF84881C0F8008053E0DFF83481BA
:10077000D8F8048008F47012DFF82881D8F80480D3
:1007800008F48035920C0D2A01D0921C00E006225C
:1007900035B9DFF81C8102FB08F8C0F8008033E0AF
:1007A000DFF80081D8F82C8008F48036DFF8F48078
:1007B000D8F82C8008F00F0808F1010446B9DFF8DA
:1007C000EC80B8FBF4F808FB02F8C0F800801BE0EE
:1007D000DFF8D080D8F82C80C8F3031808F101079F
:1007E000DFF8C080D8F82C80C8F3032808F1020C89
:1007F000DFF8B880B8FBF7F808FB0CF8B8FBF4F8A2
:1008000008FB02F8C0F8008004E0DFF89C80C0F824
:10081000008000BF00BFDFF88C80D8F8048008F0AB
:10082000F0010909DFF88C8018F80130D0F8008059
:1008300028FA03F8C0F80480DFF86880D8F804804C
:1008400008F4E061090ADFF86C8018F80130D0F88C
:10085000048028FA03F8C0F80880DFF84880D8F848
:10086000048008F46051C90ADFF8488018F80130A4
:10087000D0F8048028FA03F8C0F80C80DFF8248050
:10088000D8F8048008F44041890BDFF82C8018F870
:100890000130D0F80C80B8FBF3F8C0F81080BDE848
:1008A000F08100000010024000127A0040787D01C3
:1008B00000093D000000002010000020704710B526
:1008C00000F002F810BD00000CB50020019000906F
:1008D0003F48006840F480303D49086000BF3C4814
:1008E000006800F4003000900198401C01900098CE
:1008F00018B90198B0F5A06FF1D13548006800F43F
:10090000003010B10120009001E00020009000981C
:1009100001285CD12F48006840F010002D49086084
:100920000846006820F0030008600846006840F0B0
:10093000020008602648406825494860084640682B
:1009400048600846406840F4806048600846C06AD5
:10095000214908401E49C8620846C06A1F49084329
:100960001B49C8620846006840F08060086000BF0C
:100970001748006800F000600028F9D0144840686B
:1009800020F47C10124948600846406840F4E810A2
:1009900048600846006840F08070086000BF0C485E
:1009A000006800F000700028F9D00948406820F085
:1009B0000300074948600846406840F0020048606C
:1009C00000BF0348406800F00C000828F9D10CBDB6
:1009D000001002400020024000F0FEFF440601002B
:1009E00010B5144800684FF47A71B0FBF1F4B4F11B
:1009F000807F01D3012011E024F07F40401E4FF0A2
:100A0000E02148610F214FF0FF30FFF729FE002061
:100A10004FF0E021886107200861002008B100BF85
:100A2000FEE74FF4A060FFF711FE0021481EFFF71C
:100A300017FE10BD140000207047000010B51648C6
:100A4000006840F0010014490860084640681349F6
:100A500008401149486008460068114908400E499D
:100A600008600846006820F4802008600846406856
:100A700020F4FE0048600846006820F0A05008609E
:100A80004FF47F0088600020C862FFF718FF4FF026
:100A900000600449086010BD001002400000FFF033
:100AA000FFFFF6FE08ED00E02DE9F04704460D4695
:100AB00016461F46DDE90889206800F0C1F8656028
:100AC00026816781A4F80C80A4F80E900021218271
:100AD000211D206800F052F9BDE8F08770B504468A
:100AE0000D46164625830421E1760321A17604F103
:100AF00018013046FFF7D1FC70BD000010B540F280
:100B00002441124800F0EAF8F0B1104800880F487C
:100B1000001D008800210E48FFF7C3FB0C48FFF7BB
:100B200097FCC0F11E000B490860084600681228B7
:100B300002D1094800F0C2F91E210548FFF7AAFCBE
:100B400001210348FFF7ADFB10BD00000048004045
:100B50003000024028000020A400002021B182893A
:100B600042F40052828104E082894DF6FF731A40FC
:100B70008281704700B589B0264827490860012165
:100B80008804FFF793FD01210820FFF7AFFD012145
:100B90000846FFF77BFD214AD1141F48FFF79EFF4F
:100BA0000420010200230822CDE900101C491A4844
:100BB000FFF77AFF012240F22441164800F0B8F80E
:100BC00001211448FFF7CAFF01224021114800F01B
:100BD0002DF8002205212720FFF7EFFC00204FF41D
:100BE00040512022CDE90402CDE9061080211E23C8
:100BF000CDE90030CDE9021007480068011D00234F
:100C0000084A0948FFF759FB01210748FFF749FB4C
:100C100009B000BD00480040B8000020000C0140B1
:100C2000A0860100A4000020300002401AB1838A8F
:100C30000B43838202E0838A8B43838270470000E8
:100C400010B504462048844209D101218803FFF7EA
:100C50005DFD00214FF48040FFF758FD32E01B4856
:100C6000844209D101214804FFF730FD00214FF4EF
:100C70000030FFF72BFD25E01548844209D1012102
:100C80008804FFF723FD00214FF48020FFF71EFDAD
:100C900018E01048844209D10121C804FFF716FD6D
:100CA00000214FF40020FFF711FD0BE00A488442B9
:100CB00008D101210805FFF709FD00214FF480103C
:100CC000FFF704FD10BD0000003801400044004063
:100CD00000480040004C00400050004070B5024603
:100CE000002400230025002040F66A16B14200D1FE
:100CF00000BFC1F3421501F01F03012606FA03F3FA
:100D0000012D02D19689334006E0022D02D1168AC8
:100D1000334001E0968A33400C12012606FA04F4AF
:100D20001688344013B10CB1012000E0002070BDE2
:100D3000F0B50346002400260025002040F66A177F
:100D4000B94200D100BF1846C1F3421401F01F069A
:100D5000012707FA06F5012C01D10C3004E0022C22
:100D600001D1103000E014301AB107682F4307603A
:100D700002E00768AF430760F0BD00002DE9F047CF
:100D800086B005460E460024A24600BFA1460027B5
:100D9000B08900B100BF2F462C8A4CF6FF7004408A
:100DA000F08804432C82AC894EF6F3100440B088DE
:100DB00031890843718908430443AC81AC8A4FF6FA
:100DC000FF400440B0890443AC8201A8FFF7AEFCA9
:100DD0001F48874202D1DDF810A001E0DDF80CA029
:100DE000A88900F4004040B10AEBCA0000EB0A10E9
:100DF00031684900B0FBF1F807E00AEBCA0000EBEC
:100E00000A1031688900B0FBF1F86420B8FBF0F0FB
:100E100004012009642101FB1089A88900F4004025
:100E200040B1322000EBC900B0FBF1F000F0070048
:100E3000044308E0322000EB09106421B0FBF1F01C
:100E400000F00F0004432C8106B0BDE8F0870000DD
:100E50000038014000BFFEE70548FFF767FCFFF7D9
:100E600089FE00F007F8FFF7BBFD00BFFEE70000BA
:100E70002C0000204FF480600F4908804880888053
:100E8000C8800020488100210B488181C181017404
:100E90004174002008494882002107488182C182AC
:100EA000018341838183C1830184C185018602203E
:100EB000014908724872704740000020017842786A
:100EC00041EA0221C1F30A01474A11804178C91061
:100ED000827841EA4211C1F30A01434A5180817884
:100EE0008911C27841EA8201027941EA8221C1F383
:100EF0000A013D4A918001794910427941EAC211C3
:100F0000C1F30A01384AD1804179C1F3011111724C
:100F10004179890951728179C27941EA022109B284
:100F2000314A5181017A427A41EA02210AB22E49BC
:100F30008A81817AC27A41EA02210AB22A49CA81A7
:100F4000027B0A74427B4A74817B01F00101264ACC
:100F50005182817BC1F3400223498A82817BC1F3A4
:100F600080022149CA82817BC1F3C0021E490A83E3
:100F7000817BC1F300121C49CA85817BC1F34012F9
:100F800019490A86817BC1F3801217494A83817B04
:100F9000CA0915498A83C17B01F001021249CA833B
:100FA000C17BC1F3400210490A84C17BC1F38002B6
:100FB0000D494A84C17BC1F3C0020B498A84C17BBD
:100FC000C1F300120849CA84C17BC1F3401206492B
:100FD0000A85C17BC1F3801203494A85C17BCA09D6
:100FE00001498A8570470000400000200C1000086D
:100FF000000000202C0000008C01000838100008C0
:101000002C0000200C070000A801000800000000D0
:10101000010203040102030406070809020406088A
:1010200000A24A04000000000000000001020304C6
:0810300006070809000000009A
:04000005080001519D
:00000001FF
